:020000040800F2
:10000000005000207101000899050008BB05000898
:10001000DB050008FD0500081F06000800000000C1
:10002000000000000000000000000000C101000806
:10003000C101000800000000C1010008C101000862
:10004000C1010008C1010008C1010008C101000888
:10005000C1010008C1010008C1010008C101000878
:10006000C1010008C1010008C1010008C101000868
:10007000C1010008C1010008C1010008C101000858
:10008000C1010008C1010008C1010008C101000848
:10009000C1010008C1010008C1010008C101000838
:1000A000C1010008C1010008C1010008C101000828
:1000B000C1010008C1010008C1010008C101000818
:1000C000C1010008C1010008C1010008C101000808
:1000D000C1010008D50A0008150B0008290B00080B
:1000E000C1010008C101000800000000C1010008B2
:1000F000C1010008C1010008C1010008C1010008D8
:10010000C1010008C1010008C1010008C1010008C7
:10011000C1010008C1010008C1010008C1010008B7
:10012000C1010008C1010008C1010008C1010008A7
:1001300010B5054C237833B9044B13B10448AFF321
:1001400000800123237010BD6C040020000000001B
:100150003C17000808B5034B1BB103490348AFF334
:10016000008008BD00000000700400203C1700085B
:100170000D4885460D480E490E4A002302E0D4582A
:10018000C4500433C4188C42F9D30B4A0B4C0023DF
:1001900001E013600432A242FBD300F0B1F901F098
:1001A0001BFA00F00EF8FEE70050002000000020CF
:1001B0006C040020641700086C040020E80600208E
:1001C000FEE780B500AF00F005F800F00BF8002363
:1001D000184680BD80B500AF00F03AFC00F080FF0B
:1001E00000BF80BD80B500AF01F03CF8FCE7000027
:1001F00090B484B000AFC7E902017A60D7E9023455
:100200005B494FF00002944208BF8B4253D05849DB
:100210004FF00002A24208BF994214D355494FF053
:100220000002944208BF8B4223D04DA2D2E90012B3
:10023000944208BF8B422DD04F494FF000029442A8
:1002400008BF8B4284E04D494FF00002944208BF42
:100250008B4256D044A2D2E90012944208BF8B428E
:1002600063D047494FF00002944208BF8B4235D01B
:100270006EE07B6800221A607B684FF480225A602F
:100280007B6800229A607B680022DA607B6800222B
:100290001A615DE07B6800221A607B684FF4E0120F
:1002A0005A607B6880229A607B680022DA607B68F3
:1002B00000221A614CE07B6800221A607B684FF4D0
:1002C00080125A607B6800229A607B684FF48062DB
:1002D000DA607B684FF400521A6139E07B680022D3
:1002E0001A607B684FF4A0125A607B6800229A6003
:1002F0007B684FF48062DA607B684FF400521A61C9
:1003000026E07B684FF400321A607B684FF450128D
:100310005A607B6800229A607B684FF48062DA60E2
:100320007B684FF480621A6112E07B6800221A60D9
:100330007B684FF4E0125A607B6800229A607B6809
:100340004FF48062DA607B684FF480621A6100BF0C
:1003500000BF1037BD4690BC704700BFAFF30080B0
:10036000005125020000000000A24A040000000025
:10037000006CDC0200366E0100127A0000879303E5
:10038000007E560380B400AF0A4B1B68094A43F055
:1003900010031360074B1B68064A23F00703136022
:1003A000044B1B68034A43F00203136000BFBD46C1
:1003B00080BC70470020024080B400AF034B4FF078
:1003C00000629A6000BFBD4680BC704700ED00E04F
:1003D00080B584B000AF78600123FB734FF4A06355
:1003E000BB60464B1B68454A43F48033136002E010
:1003F000BB68013BBB60414B1B6803F40033002B1F
:1004000002D1BB68002BF3D13C4B1B6803F40033D3
:10041000002B6CD0FFF7B6FF384B5A687B689B689F
:10042000364913434B60354B5A687B68DB68334968
:1004300013434B60314B5A687B681B692F49134348
:100440004B602E4B5B682D4A23F47C1353602B4B7F
:100450005A687B6859687B681B680B431343274ABB
:1004600043F480335360254B1B68244A43F0807368
:1004700013606FF07F43BB6002E0BB68013BBB6071
:100480001E4B1B6803F00073002B02D1BB68002BCE
:10049000F3D11A4B1B6803F00073002B24D0174BC9
:1004A0005B68164A23F003035360144B5B68134ADE
:1004B00043F0020353606FF07F43BB6002E0BB6810
:1004C000013BBB600D4B5B6803F00C03082B02D0B3
:1004D000BB68002BF3D1094B5B6803F00803082BC2
:1004E00007D10123FB7304E00123FB7301E0012327
:1004F000FB73FB7B18461037BD4680BD00100240E1
:1005000080B586B000AF204B1B681F4A43F0010343
:1005100013601D4B5A681C491C4B13404B601A4B0F
:100520001B68194A23F0847323F480331360164B3D
:100530001B68154A23F480231360134B5B68124A2F
:1005400023F4FE035360104B4FF41F029A603B1DCF
:100550001A460F484FF00001FFF74AFE3B1D1846B0
:10056000FFF736FF0346002B08D00A4B01225A70D2
:10057000084BA5221A70074B0E229A70FFF71CFF3A
:1005800000BF1837BD4680BD001002400000FFF8D4
:10059000006CDC020000002080B483B000AF0123B7
:1005A000FB7101E00223FB71FB79DBB2002BF9D177
:1005B00000BF0C37BD4680BC704780B483B000AF2D
:1005C00001237B6001E002237B607B68002BFAD172
:1005D00000BF0C37BD4680BC704780B483B000AF0D
:1005E0000123FB7101E00223FB71FB79DBB2002BDD
:1005F000F9D100BF0C37BD4680BC704780B483B0D2
:1006000000AF0123FB7101E00223FB71FB79DBB238
:10061000002BF9D100BF0C37BD4680BC704780B4B9
:1006200083B000AF0123FB7101E00223FB71FB7972
:10063000DBB2002BF9D100BF0C37BD4680BC704740
:1006400080B483B000AF0023FB714FF6FF73BB8013
:1006500002E0BB88013BBB80214BDB6803F0010358
:10066000002B02D0BB88002BF3D1BB88002B2CD0F1
:100670001B4BDB6803F02003002B05D0184BDB6815
:10068000174A43F02003D360154BDB6803F01003D7
:10069000002B09D0124BDB68114A43F01003D360E2
:1006A000FB7943F00403FB710D4BDB6803F004039B
:1006B000002B0ED00A4BDB68094A43F00403D360D9
:1006C000FB7943F00203FB7103E0FB7943F0010384
:1006D000FB71FB7918460C37BD4680BC704700BFE4
:1006E0000020024080B400AF054B1B69DB09DBB280
:1006F00003F00103DBB21846BD4680BC704700BF63
:100700000020024080B483B000AF4FF6FF73FB803F
:100710000E4B0F4A5A600D4B0E4A5A6002E0FB889E
:10072000013BFB80094B1B6903F08003002B02D0C7
:10073000FB88002BF3D1FB88002B01D0002300E0C5
:10074000082318460C37BD4680BC70470020024085
:1007500023016745AB89EFCD80B483B000AF4FF67E
:10076000FF73FB800E4B1B690D4A43F0800313613E
:1007700002E0FB88013BFB80094B1B6903F080030F
:10078000002B02D1FB88002BF3D1FB88002B01D07A
:10079000002300E0102318460C37BD4680BC70478C
:1007A0000020024080B584B000AF78600B467B80AB
:1007B0000023FB73124B1B69114A43F001031361C1
:1007C0007B687A881A80FFF73BFF0346FB730C4B6C
:1007D0001B690B4A23F001031361FB7B002B09D13A
:1007E0007B681B889BB27A889A4201D1002302E081
:1007F000202300E0202318461037BD4680BD00BFEF
:100800000020024080B584B000AF786039600023DA
:10081000FB73FFF767FF0346002B03D0FFF772FF60
:100820000346FB73FB7B002B07D13B681B881946F3
:100830007868FFF7B7FF0346FB73FFF78DFF0346AA
:10084000FB73FB7B18461037BD4680BD80B586B074
:1008500000AFF860B9601346FB710023BB82002330
:10086000FB75FFF73FFF0346002B03D0FFF74AFF5E
:100870000346FB75FB7D002B47D10123FB7529E067
:10088000FB7D03F00103002B17D1FB7D013BBA6810
:1008900013441B781B021AB2BB8A1BB213431BB250
:1008A0009BB2BB82BB8A1946F868FFF77BFFFB68E7
:1008B0000233FB600023BB8209E0FB7D013BBA6889
:1008C00013441B789AB2BB8A13439BB2BB82FB7D55
:1008D0000133FB75FA7DFB7901339A42D0DBFB795A
:1008E00003F00103002B10D0FB79013BBA681344DD
:1008F0001B781BB263F0FF031BB29BB2BB8207F1F4
:1009000014031946F868FFF77DFF002318461837CF
:10091000BD4680BD80B483B000AF0346FB710023A9
:1009200018460C37BD4680BC7047000080B485B0C7
:1009300000AF03463960FB710123FB73FB79002B89
:1009400003D13B680F4A1A6016E0FB79012B03D1F3
:100950003B680D4A1A600FE0FB79022B03D13B681C
:100960000A4A1A6008E0FB79032B03D13B68084A66
:100970001A6001E00123FB73FB7B18461437BD4668
:1009800080BC704700080140000C0140001001408D
:100990000014014080B586B000AF78600123FB757C
:1009A0007B681B7807F10C0211461846FFF7BEFF63
:1009B0000346002B47D07B685B78072B02D8FB6887
:1009C0003B6102E0FB6804333B613B691A687B686A
:1009D0005B7803F007039B00032101FA03F3DB4379
:1009E0001A403B691A603B691A687B689B78194614
:1009F0007B685B7803F007039B0001FA03F31A435B
:100A00003B691A603B691A687B685B7803F00703EF
:100A10009B000233032101FA03F3DB431A403B69D5
:100A20001A603B691A687B68DB7819467B685B78DB
:100A300003F007039B00023301FA03F31A433B69F7
:100A40001A600123FB75FB7D18461837BD4680BD33
:100A500080B400AF104B9B690F4A43F004039361CD
:100A60000D4B9B690C4A43F0080393610A4B9B6949
:100A7000094A43F010039361074B9B69064A43F010
:100A800020039361044B9B69034A43F00103936184
:100A900000BFBD4680BC70470010024080B483B0E8
:100AA00000AF0346FB7197F90730002B0BDBFB7996
:100AB00003F01F02064997F907305B09012000FA8D
:100AC00002F241F8232000BF0C37BD4680BC7047BE
:100AD00000E100E080B582B000AF0C4B1B889BB2F8
:100AE00003F02003002B0CD0094B1B68002B08D00F
:100AF000064B9B889BB2FB71054B1B68FA7910462D
:100B0000984700BF0837BD4680BD00BF0038014090
:100B1000A804002080B400AF024B1B8800BFBD4674
:100B200080BC70470044004080B400AF024B1B887B
:100B300000BFBD4680BC70470048004080B485B00F
:100B400000AF0346FB710023FB60FB79022B06D04C
:100B5000032B07D0012B08D1084BFB6008E0084BA2
:100B6000FB6005E0074BFB6002E00023FB6000BF79
:100B7000FB6818461437BD4680BC704700380140FA
:100B8000004400400048004080B483B000AF0346FA
:100B9000FB71FB79042B0ED8FB79002B0BD0FB7972
:100BA000013B084A12F83330002B02D10123FB71BC
:100BB00001E00123FB71FB7918460C37BD4680BC70
:100BC000704700BF8804002090B585B000AF786002
:100BD0000023FB607B68002B41D07B681B781846A4
:100BE000FFF7D2FF0346002B39D0786800F040F8B9
:100BF0000346002B33D07B681B78013B7A68117861
:100C0000194A02F833107B681A787B681B785C1EDF
:100C10001046FFF793FF0146134AE300134459605F
:100C20007B681B78013B7A6851780F4ADB001344DC
:100C30000A465A707B685B7803F00103002B07D0EB
:100C40007B681B78013B7A689268084941F8232049
:100C50007B681B78013BDB00034A1344FB60FB68A5
:100C600018461437BD4690BD88040020A804002013
:100C700080B584B000AF78600123FB737B681B787C
:100C80001846FFF75BFFB860BB68002B00F093804D
:100C90007B681B78184600F093F8BB6800229A81A5
:100CA000BB6800221A817B685B78032B03D07B68CA
:100CB0005B78012B07D1BB689B899BB243F004038F
:100CC0009AB2BB689A81BB689B899AB27B689B7811
:100CD0009BB21B039BB213439AB2BB689A817B6899
:100CE0001B79022B13D0BB689B899BB243F48063B2
:100CF0009AB2BB689A81BB689B899AB27B681B7960
:100D00009BB25B029BB213439AB2BB689A81BB68E9
:100D10001B8A9AB27B68DB789BB21B039BB213439E
:100D20009AB2BB681A82BB6840F6C4121A817B680B
:100D30005B7803F00203DBB2002B07D0BB689B8912
:100D40009BB243F008039AB2BB689A817B685B78D8
:100D500003F00103DBB2002B23D0BB689B899BB25D
:100D600043F004039AB2BB689A81BB689B899BB22B
:100D700043F020039AB2BB689A817B681B78022BF0
:100D800007D0032B09D0012B0BD12520FFF786FEBE
:100D900007E02620FFF782FE03E02720FFF77EFE14
:100DA00000BFBB689B899BB243F400539AB2BB68F7
:100DB0009A810123FB73FB7B18461037BD4680BD2B
:100DC00080B483B000AF0346FB71FB79022B0BD0DC
:100DD000032B10D0012B00D014E00D4B9B690C4A63
:100DE00043F4804393610DE0094BDB69084A43F407
:100DF0000033D36106E0064BDB69054A43F48023E8
:100E0000D36100BF00BF0C37BD4680BC704700BF38
:100E10000010024080B483B000AF78600B46FB70D6
:100E20007B68002B0DD000BF7B685B681B889BB282
:100E300003F04003002BF7D07B685B68FA7892B22E
:100E40009A8000BF0C37BD4680BC704780B485B027
:100E500000AF78600023FB737B68B3F9003018465D
:100E60007B68B3F9023001331946094BA3FB012318
:100E7000DA0913461B029B1ACA1A904201D10123B8
:100E8000FB73FB7B18461437BD4680BC704700BF20
:100E90008180808080B485B000AF78600023FB73D0
:100EA0007B68B3F90030B3F1FF3F07D17B68B3F93A
:100EB0000230B3F1FF3F01D10123FB73FB7B1846E6
:100EC0001437BD4680BC704780B485B000AF7860F1
:100ED0007B684FF6FF721A807B684FF6FF725A806C
:100EE0000023FB8107E0FB897A68134400221A7112
:100EF000FB890133FB81FB89FE2BF4D900BF14373A
:100F0000BD4680BC7047000080B584B000AF7860FB
:100F10000B46FB700123FB737868FFF797FF0346CE
:100F2000002B25D17868FFF7B5FF0346002B06D0CC
:100F30007B6800221A807B6800225A800FE07B6861
:100F4000B3F90230013319460D4BA3FB0123DA0933
:100F500013461B029B1ACA1A12B27B685A807B681E
:100F6000B3F902301A467B681344FA781A7101E02B
:100F70000023FB73FB7B18461037BD4680BD00BFC6
:100F80008180808080B584B000AF786039600123B3
:100F9000FB737868FFF77EFF0346002B2AD17B683E
:100FA000B3F900301A467B6813441A793B681A700B
:100FB0007B68B3F900207B68B3F902309A4208D10C
:100FC0007B684FF6FF721A807B684FF6FF725A807B
:100FD00012E07B68B3F9003001331946094BA3FBDB
:100FE0000123DA0913461B029B1ACA1A12B27B6844
:100FF0001A8001E00023FB73FB7B18461037BD46C7
:1010000080BD00BF8180808080B500AF682117203F
:1010100000F002F800BF80BD80B584B000AF034689
:101020000A46FB711346BB710023FB7309E0FA7992
:10103000FB7B1344DBB21846FFF76CFCFB7B0133F0
:10104000FB73FA7BBB799A42F1D300BF1037BD46E0
:1010500080BD000080B584B000AF78600B46FB70A7
:101060000123FB730023BB607B6803331B78012BD8
:101070002ED0042B19D0002B00D02AE07B6801333E
:101080001B781B027A68023212781343BB60134B41
:101090001A68BB6842EA03007B68191DFB78043BB1
:1010A000DBB21A46FFF7D2FB13E00C4B00221A60AA
:1010B0000A4B1B687A680532127811467A68043246
:1010C000127812020A4312041343044A136000E028
:1010D00000BFFB7B18461037BD4680BDB80400201A
:1010E00080B588B000AF1C48FFF7EEFE00233B75CB
:1010F00009237B750223BB750323FB7507F11403DA
:101100001846FFF747FC00233B750A237B75022333
:10111000BB750323FB7507F114031846FFF73AFC70
:1011200001233B7103237B710023BB710023FB71FF
:1011300002233B7240F6C4137B8100233B61074BC3
:10114000FB603B1D1846FFF73FFD0246044B1A604B
:1011500000BF2037BD4680BDC004002065110008D7
:10116000A004002080B582B000AF0346FB71FB797C
:1011700019460348FFF7C8FE00BF0837BD4680BDCB
:10118000C004002080B582B000AF78607968044860
:10119000FFF7F8FE034618460837BD4680BD00BF7E
:1011A000C004002090B585B000AF78600B46FB709E
:1011B000174B1B68FD211846FFF72CFE0023FB731D
:1011C0000BE0134B1868FB7B7A6813441B781946B5
:1011D000FFF720FEFB7B0133FB73FA7BFB789A421F
:1011E000EFD30B4B1C68FB781946786800F012F8B7
:1011F000034619462046FFF70DFE054B1B68FE21EE
:101200001846FFF707FE00BF1437BD4690BD00BF6C
:10121000A004002080B485B000AF78600B46FB705E
:101220000023BB810023FB730AE0FB7B7A68134435
:101230001B789AB2BB891344BB81FB7B0133FB73E0
:10124000FA7BFB789A42F0D3BB89DB43BB81BB8935
:101250000133BB81BB89DBB218461437BD4680BC65
:101260007047000080B582B000AF41E0FB79FD2BF4
:1012700005D0FB79FE2B02D0FB79FF2B06D1224B48
:101280001B7803F00103DBB2002B1AD01F4B1B7835
:101290001A46F9791E4B99541C4B1B780133DAB26C
:1012A0001A4B1A70184B1B7803F00103DBB2002BAA
:1012B0001ED0154B1B7823F00F03DAB2124B1A70B5
:1012C00016E0FB79FF2B07D10F4B1B7843F001038E
:1012D000DAB20D4B1A700BE0FB79FE2B08D10B4BE9
:1012E0001B7819460A4800F03BF8084B00221A7098
:1012F000FB1D1846FFF746FF0346002BB6D100BF83
:101300000837BD4680BD00BFA4040020A50400200E
:10131000C405002080B485B000AF03463960FB717E
:101320000023BB730023FB730EE0FB7B0B4A12F818
:101330003330FA799A4204D13B68FA7B1A70012360
:10134000BB73FB7B0133FB73FB7B062BEDD9BB7BB4
:1013500018461437BD4680BC704700BF040000200B
:1013600080B584B000AF78600B46FB700123FB733F
:101370000023BB73FB781946786800F03BF80346FE
:10138000002B1ED0FB78013BFB707B681B7807F1BC
:101390000E0211461846FFF7BDFF0346002B0DD085
:1013A000FB78013BFB70BB7B114ADB0013445B689D
:1013B0007A680132F9781046984713E00023FB73EE
:1013C00010E007F10E0319460220FFF7A3FF0346C2
:1013D000002B07D0BB7B064ADB0013445B6800216F
:1013E00000209847FB7B18461037BD4680BD00BFE4
:1013F0000400002080B485B000AF78600B46FB701D
:101400000023FB730023BB810023FB720AE0FB7AFD
:101410007A6813441B789AB2BB891344BB81FB7A68
:101420000133FB72FA7AFB78013B9A42EFDBBB890E
:10143000DB43BB81BB890133BB81BB89DBB2FA785B
:10144000013A79680A441278934201D10123FB736F
:10145000FB7B18461437BD4680BC704780B584B00E
:1014600000AF78600B46FB700023FB7307F10F039E
:1014700019460120FFF74EFF0346002B07D0FB7BE8
:10148000054ADB0013445B6800210020984700BF39
:101490001037BD4680BD00BF0400002080B584B079
:1014A00000AF78600B46FB7001233B7307F10C0320
:1014B00001211846FFF776FE00BF1037BD4680BDFC
:1014C00080B584B000AF78600B46FB7002233B739D
:1014D00007F10C0301211846FFF764FE00BF103727
:1014E000BD4680BD80B584B000AF78600B46FB7010
:1014F00003233B7307F10C0301211846FFF752FE4B
:1015000000BF1037BD4680BD80B582B000AF7860A7
:101510000B46FB70FFF778FD00BF0837BD4680BD66
:1015200080B584B000AF78600B46FB700123FB737D
:101530000023BB73FB7819467868FFF75BFF03460F
:10154000002B0CD0FB78013BFB70FB7819467868C8
:10155000FFF780FD0346002B01D00123FB73FB7BCB
:10156000002B11D007F10E0319460120FFF7D2FE20
:101570000346002B19D0BB7B0E4ADB0013445B688B
:1015800000210020984710E007F10E0319460220C1
:10159000FFF7C0FE0346002B07D0BB7B054ADB00EC
:1015A00013445B6800210020984700BF1037BD46F8
:1015B00080BD00BF0400002080B584B000AF78601B
:1015C0000B46FB70034BFB60FB68984700BF10376E
:1015D000BD4680BD715D000870B50D4E0D4D761B8A
:1015E000B61006D00024013455F8043B9847A642B3
:1015F000F9D1094E094D00F0A1F8761BB61006D0BE
:101600000024013455F8043B9847A642F9D170BD37
:1016100058170008581700086017000858170008E6
:10162000024B13B1024800F005B8704700000000FB
:1016300041160008002301461A46184600F01EB85D
:1016400038B50A4C0A4D641BA4100AD004F180433B
:10165000013B05EB8305013C55F804399847002C04
:10166000F9D1BDE8384000F06FB800BF641700083A
:1016700060170008704700BF704700BF2DE9F843AE
:101680002B4D0646286898460F469146FFF7F2FF15
:10169000284B1C68D4F84831002B3DD05A681F2ACB
:1016A0000DDC02F1010C16BB0232C3F804C028683D
:1016B00043F82270FFF7E0FF0020BDE8F8831E4BDF
:1016C0007BB34FF4C870AFF30080034648B30020EB
:1016D000D4F848114FF0010CC3E900100246C4F8D9
:1016E0004831C3F88801C3F88C01002EDCD00121F9
:1016F00003EB8204C4F88890D3F888019140084332
:10170000022EC3F88801C4F80881CDD1D3F88C012A
:101710000143C3F88C11C7E704F5A673C4F8483138
:10172000BCE72868FFF7A8FF4FF0FF30C5E700BF10
:10173000680400205417000800000000F8B500BF3E
:10174000F8BC08BC9E467047F8B500BFF8BC08BCA2
:041750009E467047FA
:041754004000002031
:081758002116000855010008EC
:04176000310100084B
:10176400A3010800000100005D140008010100004D
:101774009D14000802010000C114000803010000C8
:10178400E514000804020000091500080502000021
:101794002115000806020000B91500080000000029
:1017A400000000002C03002094030020FC03002010
:1017B4000000000000000000000000000000000025
:1017C4000000000000000000000000000000000015
:1017D4000000000000000000000000000000000005
:1017E40000000000000000000000000000000000F5
:1017F40000000000000000000000000000000000E5
:1018040000000000000000000000000000000000D4
:1018140000000000000000000000000000000000C4
:1018240000000000000000000000000000000000B4
:1018340000000000000000000000000000000000A4
:101844000000000000000000010000000000000093
:101854000E33CDAB34126DE6ECDE05000B00000058
:101864000000000000000000000000000000000074
:101874000000000000000000000000000000000064
:101884000000000000000000000000000000000054
:101894000000000000000000000000000000000044
:0C1BC4000000000000000000C40600202B
:04000005080001717D
:00000001FF
